{
  "_format": "hh-sol-artifact-1",
  "contractName": "Splitwise",
  "sourceName": "contracts/mycontract.sol",
  "abi": [
    {
      "inputs": [],
      "stateMutability": "nonpayable",
      "type": "constructor"
    },
    {
      "inputs": [
        {
          "internalType": "address",
          "name": "creditor",
          "type": "address"
        },
        {
          "internalType": "uint32",
          "name": "amount",
          "type": "uint32"
        }
      ],
      "name": "addIOU",
      "outputs": [
        {
          "internalType": "bool",
          "name": "",
          "type": "bool"
        }
      ],
      "stateMutability": "nonpayable",
      "type": "function"
    },
    {
      "inputs": [
        {
          "internalType": "address",
          "name": "userOwe",
          "type": "address"
        }
      ],
      "name": "getTotalOwed",
      "outputs": [
        {
          "internalType": "uint32",
          "name": "",
          "type": "uint32"
        }
      ],
      "stateMutability": "view",
      "type": "function"
    },
    {
      "inputs": [],
      "name": "getUser",
      "outputs": [
        {
          "internalType": "address[]",
          "name": "",
          "type": "address[]"
        }
      ],
      "stateMutability": "view",
      "type": "function"
    },
    {
      "inputs": [
        {
          "internalType": "address",
          "name": "debtor",
          "type": "address"
        },
        {
          "internalType": "address",
          "name": "creditor",
          "type": "address"
        }
      ],
      "name": "lookup",
      "outputs": [
        {
          "internalType": "uint32",
          "name": "",
          "type": "uint32"
        }
      ],
      "stateMutability": "view",
      "type": "function"
    },
    {
      "inputs": [
        {
          "internalType": "address",
          "name": "node",
          "type": "address"
        }
      ],
      "name": "numberNode",
      "outputs": [
        {
          "internalType": "uint32",
          "name": "",
          "type": "uint32"
        }
      ],
      "stateMutability": "view",
      "type": "function"
    },
    {
      "inputs": [
        {
          "internalType": "address",
          "name": "a",
          "type": "address"
        }
      ],
      "name": "ownerr",
      "outputs": [
        {
          "internalType": "bool",
          "name": "",
          "type": "bool"
        }
      ],
      "stateMutability": "view",
      "type": "function"
    },
    {
      "inputs": [
        {
          "internalType": "address",
          "name": "debtor",
          "type": "address"
        },
        {
          "internalType": "address",
          "name": "creditor",
          "type": "address"
        },
        {
          "internalType": "uint32",
          "name": "amount",
          "type": "uint32"
        }
      ],
      "name": "subIOU",
      "outputs": [
        {
          "internalType": "bool",
          "name": "",
          "type": "bool"
        }
      ],
      "stateMutability": "nonpayable",
      "type": "function"
    }
  ],
  "bytecode": "0x608060405234801561001057600080fd5b50336000806101000a81548173ffffffffffffffffffffffffffffffffffffffff021916908373ffffffffffffffffffffffffffffffffffffffff160217905550610e7b806100606000396000f3fe608060405234801561001057600080fd5b506004361061007d5760003560e01c80638d15df561161005b5780638d15df5614610100578063eb41b80314610130578063fce410a514610160578063fe76b8c4146101905761007d565b8063713584a61461008257806373851075146100b2578063832880e7146100e2575b600080fd5b61009c60048036038101906100979190610a00565b6101c0565b6040516100a99190610a5f565b60405180910390f35b6100cc60048036038101906100c79190610a7a565b610257565b6040516100d99190610a5f565b60405180910390f35b6100ea610376565b6040516100f79190610b65565b60405180910390f35b61011a60048036038101906101159190610bb3565b610404565b6040516101279190610c0e565b60405180910390f35b61014a60048036038101906101459190610c29565b61077a565b6040516101579190610c0e565b60405180910390f35b61017a60048036038101906101759190610a7a565b6108cf565b6040516101879190610a5f565b60405180910390f35b6101aa60048036038101906101a59190610a7a565b610934565b6040516101b79190610c0e565b60405180910390f35b6000600160008473ffffffffffffffffffffffffffffffffffffffff1673ffffffffffffffffffffffffffffffffffffffff16815260200190815260200160002060008373ffffffffffffffffffffffffffffffffffffffff1673ffffffffffffffffffffffffffffffffffffffff16815260200190815260200160002060009054906101000a900463ffffffff16905092915050565b6000806000905060005b600460009054906101000a900463ffffffff1663ffffffff1681101561036c57600160008573ffffffffffffffffffffffffffffffffffffffff1673ffffffffffffffffffffffffffffffffffffffff1681526020019081526020016000206000600283815481106102d6576102d5610c7c565b5b9060005260206000200160009054906101000a900473ffffffffffffffffffffffffffffffffffffffff1673ffffffffffffffffffffffffffffffffffffffff1673ffffffffffffffffffffffffffffffffffffffff16815260200190815260200160002060009054906101000a900463ffffffff16826103579190610cda565b9150808061036490610d1c565b915050610261565b5080915050919050565b606060028054806020026020016040519081016040528092919081815260200182805480156103fa57602002820191906000526020600020905b8160009054906101000a900473ffffffffffffffffffffffffffffffffffffffff1673ffffffffffffffffffffffffffffffffffffffff16815260200190600101908083116103b0575b5050505050905090565b600080600360008573ffffffffffffffffffffffffffffffffffffffff1673ffffffffffffffffffffffffffffffffffffffff16815260200190815260200160002060009054906101000a900463ffffffff1663ffffffff160361055e576004600081819054906101000a900463ffffffff1661048090610d64565b91906101000a81548163ffffffff021916908363ffffffff1602179055600360008573ffffffffffffffffffffffffffffffffffffffff1673ffffffffffffffffffffffffffffffffffffffff16815260200190815260200160002060006101000a81548163ffffffff021916908363ffffffff1602179055506002839080600181540180825580915050600190039060005260206000200160009091909190916101000a81548173ffffffffffffffffffffffffffffffffffffffff021916908373ffffffffffffffffffffffffffffffffffffffff1602179055505b6000600360003373ffffffffffffffffffffffffffffffffffffffff1673ffffffffffffffffffffffffffffffffffffffff16815260200190815260200160002060009054906101000a900463ffffffff1663ffffffff16036106b7576004600081819054906101000a900463ffffffff166105d990610d64565b91906101000a81548163ffffffff021916908363ffffffff1602179055600360003373ffffffffffffffffffffffffffffffffffffffff1673ffffffffffffffffffffffffffffffffffffffff16815260200190815260200160002060006101000a81548163ffffffff021916908363ffffffff1602179055506002339080600181540180825580915050600190039060005260206000200160009091909190916101000a81548173ffffffffffffffffffffffffffffffffffffffff021916908373ffffffffffffffffffffffffffffffffffffffff1602179055505b81600160003373ffffffffffffffffffffffffffffffffffffffff1673ffffffffffffffffffffffffffffffffffffffff16815260200190815260200160002060008573ffffffffffffffffffffffffffffffffffffffff1673ffffffffffffffffffffffffffffffffffffffff16815260200190815260200160002060008282829054906101000a900463ffffffff166107529190610cda565b92506101000a81548163ffffffff021916908363ffffffff1602179055506001905092915050565b60008060009054906101000a900473ffffffffffffffffffffffffffffffffffffffff1673ffffffffffffffffffffffffffffffffffffffff163373ffffffffffffffffffffffffffffffffffffffff161461080b576040517f08c379a000000000000000000000000000000000000000000000000000000000815260040161080290610ded565b60405180910390fd5b81600160008673ffffffffffffffffffffffffffffffffffffffff1673ffffffffffffffffffffffffffffffffffffffff16815260200190815260200160002060008573ffffffffffffffffffffffffffffffffffffffff1673ffffffffffffffffffffffffffffffffffffffff16815260200190815260200160002060008282829054906101000a900463ffffffff166108a69190610e0d565b92506101000a81548163ffffffff021916908363ffffffff160217905550600190509392505050565b60006001600360008473ffffffffffffffffffffffffffffffffffffffff1673ffffffffffffffffffffffffffffffffffffffff16815260200190815260200160002060009054906101000a900463ffffffff1661092d9190610e0d565b9050919050565b60008060009054906101000a900473ffffffffffffffffffffffffffffffffffffffff1673ffffffffffffffffffffffffffffffffffffffff168273ffffffffffffffffffffffffffffffffffffffff16036109935760019050610998565b600090505b919050565b600080fd5b600073ffffffffffffffffffffffffffffffffffffffff82169050919050565b60006109cd826109a2565b9050919050565b6109dd816109c2565b81146109e857600080fd5b50565b6000813590506109fa816109d4565b92915050565b60008060408385031215610a1757610a1661099d565b5b6000610a25858286016109eb565b9250506020610a36858286016109eb565b9150509250929050565b600063ffffffff82169050919050565b610a5981610a40565b82525050565b6000602082019050610a746000830184610a50565b92915050565b600060208284031215610a9057610a8f61099d565b5b6000610a9e848285016109eb565b91505092915050565b600081519050919050565b600082825260208201905092915050565b6000819050602082019050919050565b610adc816109c2565b82525050565b6000610aee8383610ad3565b60208301905092915050565b6000602082019050919050565b6000610b1282610aa7565b610b1c8185610ab2565b9350610b2783610ac3565b8060005b83811015610b58578151610b3f8882610ae2565b9750610b4a83610afa565b925050600181019050610b2b565b5085935050505092915050565b60006020820190508181036000830152610b7f8184610b07565b905092915050565b610b9081610a40565b8114610b9b57600080fd5b50565b600081359050610bad81610b87565b92915050565b60008060408385031215610bca57610bc961099d565b5b6000610bd8858286016109eb565b9250506020610be985828601610b9e565b9150509250929050565b60008115159050919050565b610c0881610bf3565b82525050565b6000602082019050610c236000830184610bff565b92915050565b600080600060608486031215610c4257610c4161099d565b5b6000610c50868287016109eb565b9350506020610c61868287016109eb565b9250506040610c7286828701610b9e565b9150509250925092565b7f4e487b7100000000000000000000000000000000000000000000000000000000600052603260045260246000fd5b7f4e487b7100000000000000000000000000000000000000000000000000000000600052601160045260246000fd5b6000610ce582610a40565b9150610cf083610a40565b9250828201905063ffffffff811115610d0c57610d0b610cab565b5b92915050565b6000819050919050565b6000610d2782610d12565b91507fffffffffffffffffffffffffffffffffffffffffffffffffffffffffffffffff8203610d5957610d58610cab565b5b600182019050919050565b6000610d6f82610a40565b915063ffffffff8203610d8557610d84610cab565b5b600182019050919050565b600082825260208201905092915050565b7f596f7520617265206e6f742041646d696e000000000000000000000000000000600082015250565b6000610dd7601183610d90565b9150610de282610da1565b602082019050919050565b60006020820190508181036000830152610e0681610dca565b9050919050565b6000610e1882610a40565b9150610e2383610a40565b9250828203905063ffffffff811115610e3f57610e3e610cab565b5b9291505056fea2646970667358221220b83b4f30802f256dbc82b2b1a24b795ca5eac1bcc6bfe274c6161090437003a564736f6c63430008110033",
  "linkReferences": {},
  "deployedLinkReferences": {}
}