{
  "_format": "hh-sol-artifact-1",
  "contractName": "TokenExchange",
  "sourceName": "contracts/exchange.sol",
  "abi": [
    {
      "inputs": [],
      "stateMutability": "nonpayable",
      "type": "constructor"
    },
    {
      "anonymous": false,
      "inputs": [
        {
          "indexed": false,
          "internalType": "address",
          "name": "from",
          "type": "address"
        },
        {
          "indexed": false,
          "internalType": "uint256",
          "name": "amountToken",
          "type": "uint256"
        },
        {
          "indexed": false,
          "internalType": "uint256",
          "name": "amountETH",
          "type": "uint256"
        }
      ],
      "name": "AddLiquidity",
      "type": "event"
    },
    {
      "inputs": [
        {
          "internalType": "string",
          "name": "s",
          "type": "string"
        }
      ],
      "name": "StringToUint",
      "outputs": [
        {
          "internalType": "uint256",
          "name": "",
          "type": "uint256"
        }
      ],
      "stateMutability": "pure",
      "type": "function"
    },
    {
      "inputs": [
        {
          "internalType": "string",
          "name": "commitment",
          "type": "string"
        }
      ],
      "name": "addLiquidity",
      "outputs": [],
      "stateMutability": "payable",
      "type": "function"
    },
    {
      "inputs": [],
      "name": "admin",
      "outputs": [
        {
          "internalType": "address",
          "name": "",
          "type": "address"
        }
      ],
      "stateMutability": "view",
      "type": "function"
    },
    {
      "inputs": [
        {
          "internalType": "uint256",
          "name": "amountETH",
          "type": "uint256"
        }
      ],
      "name": "amountETHGivenToken",
      "outputs": [
        {
          "internalType": "uint256",
          "name": "",
          "type": "uint256"
        }
      ],
      "stateMutability": "view",
      "type": "function"
    },
    {
      "inputs": [
        {
          "internalType": "uint256",
          "name": "amountToken",
          "type": "uint256"
        }
      ],
      "name": "amountTokenGivenETH",
      "outputs": [
        {
          "internalType": "uint256",
          "name": "",
          "type": "uint256"
        }
      ],
      "stateMutability": "view",
      "type": "function"
    },
    {
      "inputs": [
        {
          "internalType": "uint256",
          "name": "amountTokens",
          "type": "uint256"
        }
      ],
      "name": "createPool",
      "outputs": [],
      "stateMutability": "payable",
      "type": "function"
    },
    {
      "inputs": [],
      "name": "eth_reserves",
      "outputs": [
        {
          "internalType": "uint256",
          "name": "",
          "type": "uint256"
        }
      ],
      "stateMutability": "view",
      "type": "function"
    },
    {
      "inputs": [
        {
          "internalType": "string",
          "name": "commitment",
          "type": "string"
        }
      ],
      "name": "haveCommitment",
      "outputs": [
        {
          "internalType": "bool",
          "name": "",
          "type": "bool"
        }
      ],
      "stateMutability": "view",
      "type": "function"
    },
    {
      "inputs": [],
      "name": "k",
      "outputs": [
        {
          "internalType": "uint256",
          "name": "",
          "type": "uint256"
        }
      ],
      "stateMutability": "view",
      "type": "function"
    },
    {
      "inputs": [],
      "name": "notificationError",
      "outputs": [],
      "stateMutability": "nonpayable",
      "type": "function"
    },
    {
      "inputs": [],
      "name": "priceETH",
      "outputs": [
        {
          "internalType": "uint256",
          "name": "",
          "type": "uint256"
        }
      ],
      "stateMutability": "view",
      "type": "function"
    },
    {
      "inputs": [],
      "name": "priceToken",
      "outputs": [
        {
          "internalType": "uint256",
          "name": "",
          "type": "uint256"
        }
      ],
      "stateMutability": "view",
      "type": "function"
    },
    {
      "inputs": [],
      "name": "rallyCommitment",
      "outputs": [
        {
          "internalType": "string[]",
          "name": "",
          "type": "string[]"
        }
      ],
      "stateMutability": "view",
      "type": "function"
    },
    {
      "inputs": [
        {
          "internalType": "uint256",
          "name": "",
          "type": "uint256"
        }
      ],
      "name": "rally_commitments",
      "outputs": [
        {
          "internalType": "string",
          "name": "",
          "type": "string"
        }
      ],
      "stateMutability": "view",
      "type": "function"
    },
    {
      "inputs": [
        {
          "internalType": "string",
          "name": "commitment",
          "type": "string"
        }
      ],
      "name": "swapETHForTokens",
      "outputs": [],
      "stateMutability": "payable",
      "type": "function"
    },
    {
      "inputs": [
        {
          "internalType": "string",
          "name": "_commitment",
          "type": "string"
        }
      ],
      "name": "swapTokensForETH",
      "outputs": [],
      "stateMutability": "payable",
      "type": "function"
    },
    {
      "inputs": [],
      "name": "swap_fee_denominator",
      "outputs": [
        {
          "internalType": "uint256",
          "name": "",
          "type": "uint256"
        }
      ],
      "stateMutability": "view",
      "type": "function"
    },
    {
      "inputs": [],
      "name": "swap_fee_numerator",
      "outputs": [
        {
          "internalType": "uint256",
          "name": "",
          "type": "uint256"
        }
      ],
      "stateMutability": "view",
      "type": "function"
    },
    {
      "inputs": [],
      "name": "token_reserves",
      "outputs": [
        {
          "internalType": "uint256",
          "name": "",
          "type": "uint256"
        }
      ],
      "stateMutability": "view",
      "type": "function"
    },
    {
      "inputs": [],
      "name": "verifier",
      "outputs": [
        {
          "internalType": "contract IVerifier",
          "name": "",
          "type": "address"
        }
      ],
      "stateMutability": "view",
      "type": "function"
    },
    {
      "inputs": [
        {
          "internalType": "address",
          "name": "_recipient",
          "type": "address"
        },
        {
          "internalType": "uint256[]",
          "name": "p",
          "type": "uint256[]"
        },
        {
          "internalType": "string",
          "name": "digest",
          "type": "string"
        },
        {
          "internalType": "string",
          "name": "nullifier",
          "type": "string"
        },
        {
          "internalType": "string",
          "name": "commitment",
          "type": "string"
        }
      ],
      "name": "withdraw",
      "outputs": [],
      "stateMutability": "payable",
      "type": "function"
    }
  ],
  "bytecode": "0x60a060405273e7f1725e7734ce288f8367e1bb143e90bb3f0512600260006101000a81548173ffffffffffffffffffffffffffffffffffffffff021916908373ffffffffffffffffffffffffffffffffffffffff160217905550600260009054906101000a900473ffffffffffffffffffffffffffffffffffffffff16600360006101000a81548173ffffffffffffffffffffffffffffffffffffffff021916908373ffffffffffffffffffffffffffffffffffffffff1602179055506000600d556000600e55600560105560646011553480156100dc57600080fd5b50336000806101000a81548173ffffffffffffffffffffffffffffffffffffffff021916908373ffffffffffffffffffffffffffffffffffffffff16021790555033600160006101000a81548173ffffffffffffffffffffffffffffffffffffffff021916908373ffffffffffffffffffffffffffffffffffffffff1602179055506064600b819055506064600c81905550735fbdb2315678afecb367f032d93f642f64180aa373ffffffffffffffffffffffffffffffffffffffff1660808173ffffffffffffffffffffffffffffffffffffffff16815250506080516132bc6101d860003960008181610ac001526119ae01526132bc6000f3fe60806040526004361061012a5760003560e01c80638259e6a0116100ab578063b4f40c611161006f578063b4f40c6114610379578063c38ad273146103a4578063e7ba3e84146103cf578063eeddd4f61461040c578063f3b0f17614610449578063f851a440146104865761012a565b80638259e6a0146102c057806385a81c84146102dc5780638a7d96381461030757806397ba499f146103235780639adb3b971461034e5761012a565b80632ff6fe76116100f25780632ff6fe761461021b5780633291f353146102465780633d8f2f9b146102625780636d6a18a1146102795780637f9cc948146102955761012a565b80630cc3aa2d1461012f578063156ac5ca1461016c5780632098629a146101a957806327f95e19146101d45780632b7ac3f3146101f0575b600080fd5b34801561013b57600080fd5b5061015660048036038101906101519190611eb4565b6104b1565b6040516101639190611f71565b60405180910390f35b34801561017857600080fd5b50610193600480360381019061018e9190611eb4565b61055d565b6040516101a09190611fa2565b60405180910390f35b3480156101b557600080fd5b506101be6105af565b6040516101cb9190611fa2565b60405180910390f35b6101ee60048036038101906101e991906120f2565b6105b5565b005b3480156101fc57600080fd5b50610205610abe565b60405161021291906121ba565b60405180910390f35b34801561022757600080fd5b50610230610ae2565b60405161023d9190611fa2565b60405180910390f35b610260600480360381019061025b91906120f2565b610b18565b005b34801561026e57600080fd5b50610277610ce4565b005b610293600480360381019061028e91906120f2565b610d2a565b005b3480156102a157600080fd5b506102aa611320565b6040516102b791906122e1565b60405180910390f35b6102da60048036038101906102d59190611eb4565b6113f9565b005b3480156102e857600080fd5b506102f1611783565b6040516102fe9190611fa2565b60405180910390f35b610321600480360381019061031c9190612409565b611789565b005b34801561032f57600080fd5b50610338611c41565b6040516103459190611fa2565b60405180910390f35b34801561035a57600080fd5b50610363611c47565b6040516103709190611fa2565b60405180910390f35b34801561038557600080fd5b5061038e611c4d565b60405161039b9190611fa2565b60405180910390f35b3480156103b057600080fd5b506103b9611c53565b6040516103c69190611fa2565b60405180910390f35b3480156103db57600080fd5b506103f660048036038101906103f191906120f2565b611c89565b604051610403919061250f565b60405180910390f35b34801561041857600080fd5b50610433600480360381019061042e9190611eb4565b611cb3565b6040516104409190611fa2565b60405180910390f35b34801561045557600080fd5b50610470600480360381019061046b91906120f2565b611d05565b60405161047d9190611fa2565b60405180910390f35b34801561049257600080fd5b5061049b611d9d565b6040516104a89190612539565b60405180910390f35b600981815481106104c157600080fd5b9060005260206000200160009150905080546104dc90612583565b80601f016020809104026020016040519081016040528092919081815260200182805461050890612583565b80156105555780601f1061052a57610100808354040283529160200191610555565b820191906000526020600020905b81548152906001019060200180831161053857829003601f168201915b505050505081565b600081600d541161057157600090506105aa565b6105a7600e5461059984600d5461058891906125e3565b600f54611dc390919063ffffffff16565b611dd990919063ffffffff16565b90505b919050565b60115481565b60006006826040516105c79190612653565b90815260200160405180910390205414610616576040517f08c379a000000000000000000000000000000000000000000000000000000000815260040161060d906126b6565b60405180910390fd5b6000600360009054906101000a900473ffffffffffffffffffffffffffffffffffffffff1673ffffffffffffffffffffffffffffffffffffffff1663306c395d33306040518363ffffffff1660e01b81526004016106759291906126d6565b602060405180830381865afa158015610692573d6000803e3d6000fd5b505050506040513d601f19601f820116820180604052508101906106b69190612714565b905060006106c5600b54611cb3565b90506000600860003373ffffffffffffffffffffffffffffffffffffffff1673ffffffffffffffffffffffffffffffffffffffff16815260200190815260200160002060003073ffffffffffffffffffffffffffffffffffffffff1673ffffffffffffffffffffffffffffffffffffffff168152602001908152602001600020548361075191906125e3565b905081600860003373ffffffffffffffffffffffffffffffffffffffff1673ffffffffffffffffffffffffffffffffffffffff16815260200190815260200160002060003073ffffffffffffffffffffffffffffffffffffffff1673ffffffffffffffffffffffffffffffffffffffff16815260200190815260200160002054846107dc91906125e3565b1061093f576107f8600b54600e54611dd990919063ffffffff16565b600e8190555061081382600d54611def90919063ffffffff16565b600d81905550610830600e54600d54611e0590919063ffffffff16565b600f8190555080600860003373ffffffffffffffffffffffffffffffffffffffff1673ffffffffffffffffffffffffffffffffffffffff16815260200190815260200160002060003073ffffffffffffffffffffffffffffffffffffffff1673ffffffffffffffffffffffffffffffffffffffff16815260200190815260200160002060008282546108c29190612741565b9250508190555060016006856040516108db9190612653565b908152602001604051809103902081905550600a600081548092919061090090612775565b9190505550600984908060018154018082558091505060019003906000526020600020016000909190919091509081610939919061295f565b50610ab8565b600360009054906101000a900473ffffffffffffffffffffffffffffffffffffffff1673ffffffffffffffffffffffffffffffffffffffff1663a9059cbb33836040518363ffffffff1660e01b815260040161099c929190612a31565b6020604051808303816000875af11580156109bb573d6000803e3d6000fd5b505050506040513d601f19601f820116820180604052508101906109df9190612a86565b5080600860003373ffffffffffffffffffffffffffffffffffffffff1673ffffffffffffffffffffffffffffffffffffffff16815260200190815260200160002060003073ffffffffffffffffffffffffffffffffffffffff1673ffffffffffffffffffffffffffffffffffffffff1681526020019081526020016000206000828254610a6c9190612741565b925050819055506000600110610ab7576040517f08c379a0000000000000000000000000000000000000000000000000000000008152600401610aae90612aff565b60405180910390fd5b5b50505050565b7f000000000000000000000000000000000000000000000000000000000000000081565b60008060649050610b12600e54610b04600d5484611e0590919063ffffffff16565b611dc390919063ffffffff16565b91505090565b6000600682604051610b2a9190612653565b90815260200160405180910390205414610b79576040517f08c379a0000000000000000000000000000000000000000000000000000000008152600401610b70906126b6565b60405180910390fd5b610b84600c5461055d565b3410610c55576002600682604051610b9c9190612653565b908152602001604051809103902081905550600a6000815480929190610bc190612775565b9190505550600981908060018154018082558091505060019003906000526020600020016000909190919091509081610bfa919061295f565b50610c1034600e54611def90919063ffffffff16565b600e81905550610c2d600c54600d54611dd990919063ffffffff16565b600d81905550610c4a600e54600d54611e0590919063ffffffff16565b600f81905550610ce1565b3373ffffffffffffffffffffffffffffffffffffffff166108fc349081150290604051600060405180830381858888f19350505050158015610c9b573d6000803e3d6000fd5b506000600110610ce0576040517f08c379a0000000000000000000000000000000000000000000000000000000008152600401610cd790612b6b565b60405180910390fd5b5b50565b6000600110610d28576040517f08c379a0000000000000000000000000000000000000000000000000000000008152600401610d1f90612bd7565b60405180910390fd5b565b6000600360009054906101000a900473ffffffffffffffffffffffffffffffffffffffff1673ffffffffffffffffffffffffffffffffffffffff1663306c395d33306040518363ffffffff1660e01b8152600401610d899291906126d6565b602060405180830381865afa158015610da6573d6000803e3d6000fd5b505050506040513d601f19601f82011682018060405250810190610dca9190612714565b90506000600860003373ffffffffffffffffffffffffffffffffffffffff1673ffffffffffffffffffffffffffffffffffffffff16815260200190815260200160002060003073ffffffffffffffffffffffffffffffffffffffff1673ffffffffffffffffffffffffffffffffffffffff1681526020019081526020016000205482610e5691906125e3565b90506000349050600c5482141580610e705750600b548114155b15610fa2573373ffffffffffffffffffffffffffffffffffffffff166108fc839081150290604051600060405180830381858888f19350505050158015610ebb573d6000803e3d6000fd5b50600360009054906101000a900473ffffffffffffffffffffffffffffffffffffffff1673ffffffffffffffffffffffffffffffffffffffff1663a9059cbb33836040518363ffffffff1660e01b8152600401610f19929190612a31565b6020604051808303816000875af1158015610f38573d6000803e3d6000fd5b505050506040513d601f19601f82011682018060405250810190610f5c9190612a86565b506000600110610fa1576040517f08c379a0000000000000000000000000000000000000000000000000000000008152600401610f9890612c43565b60405180910390fd5b5b600c5482148015610fb45750600b5481145b156110ea573373ffffffffffffffffffffffffffffffffffffffff166108fc839081150290604051600060405180830381858888f19350505050158015610fff573d6000803e3d6000fd5b50600360009054906101000a900473ffffffffffffffffffffffffffffffffffffffff1673ffffffffffffffffffffffffffffffffffffffff1663a9059cbb33836040518363ffffffff1660e01b815260040161105d929190612a31565b6020604051808303816000875af115801561107c573d6000803e3d6000fd5b505050506040513d601f19601f820116820180604052508101906110a09190612a86565b5060006001106110e5576040517f08c379a00000000000000000000000000000000000000000000000000000000081526004016110dc90612caf565b60405180910390fd5b6112df565b600c5482036112345761110882600d54611def90919063ffffffff16565b600d81905550611125600e54600d54611e0590919063ffffffff16565b600f8190555081600860003373ffffffffffffffffffffffffffffffffffffffff1673ffffffffffffffffffffffffffffffffffffffff16815260200190815260200160002060003073ffffffffffffffffffffffffffffffffffffffff1673ffffffffffffffffffffffffffffffffffffffff16815260200190815260200160002060008282546111b79190612741565b9250508190555060026006856040516111d09190612653565b908152602001604051809103902081905550600a60008154809291906111f590612775565b919050555060098490806001815401808255809150506001900390600052602060002001600090919091909150908161122e919061295f565b506112de565b60016006856040516112469190612653565b908152602001604051809103902081905550600a600081548092919061126b90612775565b91905055506009849080600181540180825580915050600190039060005260206000200160009091909190915090816112a4919061295f565b506112ba34600e54611def90919063ffffffff16565b600e819055506112d7600e54600d54611e0590919063ffffffff16565b600f819055505b5b7f06239653922ac7bea6aa2b19dc486b9361821d37712eb796adfd38d81de278ca33828460405161131293929190612ccf565b60405180910390a150505050565b60606009805480602002602001604051908101604052809291908181526020016000905b828210156113f057838290600052602060002001805461136390612583565b80601f016020809104026020016040519081016040528092919081815260200182805461138f90612583565b80156113dc5780601f106113b1576101008083540402835291602001916113dc565b820191906000526020600020905b8154815290600101906020018083116113bf57829003601f168201915b505050505081526020019060010190611344565b50505050905090565b3373ffffffffffffffffffffffffffffffffffffffff1660008054906101000a900473ffffffffffffffffffffffffffffffffffffffff1673ffffffffffffffffffffffffffffffffffffffff1614611487576040517f08c379a000000000000000000000000000000000000000000000000000000000815260040161147e90612d52565b60405180910390fd5b6000600d54146114cc576040517f08c379a00000000000000000000000000000000000000000000000000000000081526004016114c390612dbe565b60405180910390fd5b6000600e5414611511576040517f08c379a000000000000000000000000000000000000000000000000000000000815260040161150890612e2a565b60405180910390fd5b60003411611554576040517f08c379a000000000000000000000000000000000000000000000000000000000815260040161154b90612e96565b60405180910390fd5b60008111611597576040517f08c379a000000000000000000000000000000000000000000000000000000000815260040161158e90612f02565b60405180910390fd5b600360009054906101000a900473ffffffffffffffffffffffffffffffffffffffff1673ffffffffffffffffffffffffffffffffffffffff166323b872dd3330846040518463ffffffff1660e01b81526004016115f693929190612f22565b6020604051808303816000875af1158015611615573d6000803e3d6000fd5b505050506040513d601f19601f820116820180604052508101906116399190612a86565b5034600e8190555080600d8190555034600460003373ffffffffffffffffffffffffffffffffffffffff1673ffffffffffffffffffffffffffffffffffffffff1681526020019081526020016000208190555080600560003373ffffffffffffffffffffffffffffffffffffffff1673ffffffffffffffffffffffffffffffffffffffff1681526020019081526020016000208190555080600860003373ffffffffffffffffffffffffffffffffffffffff1673ffffffffffffffffffffffffffffffffffffffff16815260200190815260200160002060003073ffffffffffffffffffffffffffffffffffffffff1673ffffffffffffffffffffffffffffffffffffffff168152602001908152602001600020600082825461175c9190612741565b9250508190555061177a600d54600e54611e0590919063ffffffff16565b600f8190555050565b60105481565b6000151560078360405161179d9190612653565b908152602001604051809103902060009054906101000a900460ff161515146117fb576040517f08c379a00000000000000000000000000000000000000000000000000000000081526004016117f2906126b6565b60405180910390fd5b611803611e1b565b61180b611e3d565b611813611e1b565b61181b611e1b565b60405180604001604052808960008151811061183a57611839612f59565b5b602002602001015181526020018960018151811061185b5761185a612f59565b5b60200260200101518152509350604051806040016040528060405180604001604052808b60028151811061189257611891612f59565b5b602002602001015181526020018b6003815181106118b3576118b2612f59565b5b6020026020010151815250815260200160405180604001604052808b6004815181106118e2576118e1612f59565b5b602002602001015181526020018b60058151811061190357611902612f59565b5b6020026020010151815250815250925060405180604001604052808960068151811061193257611931612f59565b5b602002602001015181526020018960078151811061195357611952612f59565b5b6020026020010151815250915061196987611d05565b8160006002811061197d5761197c612f59565b5b60200201818152505061198f86611d05565b816001600281106119a3576119a2612f59565b5b6020020181815250507f000000000000000000000000000000000000000000000000000000000000000073ffffffffffffffffffffffffffffffffffffffff1663f5c9d69e858585856040518563ffffffff1660e01b8152600401611a0b9493929190613131565b6020604051808303816000875af1158015611a2a573d6000803e3d6000fd5b505050506040513d601f19601f82011682018060405250810190611a4e9190612a86565b611a8d576040517f08c379a0000000000000000000000000000000000000000000000000000000008152600401611a84906131c4565b60405180910390fd5b6001600787604051611a9f9190612653565b908152602001604051809103902060006101000a81548160ff0219169083151502179055506001600686604051611ad69190612653565b90815260200160405180910390205403611b65576000601154601054600b54611aff91906131e4565b611b099190613255565b600b54611b1691906125e3565b90508973ffffffffffffffffffffffffffffffffffffffff166108fc829081150290604051600060405180830381858888f19350505050158015611b5e573d6000803e3d6000fd5b5050611c36565b6000601154601054600b54611b7a91906131e4565b611b849190613255565b600c54611b9191906125e3565b9050600360009054906101000a900473ffffffffffffffffffffffffffffffffffffffff1673ffffffffffffffffffffffffffffffffffffffff1663a9059cbb8b836040518363ffffffff1660e01b8152600401611bf0929190612a31565b6020604051808303816000875af1158015611c0f573d6000803e3d6000fd5b505050506040513d601f19601f82011682018060405250810190611c339190612a86565b50505b505050505050505050565b600e5481565b600d5481565b600f5481565b60008060649050611c83600d54611c75600e5484611e0590919063ffffffff16565b611dc390919063ffffffff16565b91505090565b600080600683604051611c9c9190612653565b908152602001604051809103902054119050919050565b600081600e5411611cc75760009050611d00565b611cfd600d54611cef84600e54611cde91906125e3565b600f54611dc390919063ffffffff16565b611dd990919063ffffffff16565b90505b919050565b6000808290506000805b8251811015611d92576000838281518110611d2d57611d2c612f59565b5b602001015160f81c60f81b60f81c60ff16905060308110158015611d52575060398111155b15611d7e57603081611d6491906125e3565b600a84611d7191906131e4565b611d7b9190612741565b92505b508080611d8a90612775565b915050611d0f565b508092505050919050565b600160009054906101000a900473ffffffffffffffffffffffffffffffffffffffff1681565b60008183611dd19190613255565b905092915050565b60008183611de791906125e3565b905092915050565b60008183611dfd9190612741565b905092915050565b60008183611e1391906131e4565b905092915050565b6040518060400160405280600290602082028036833780820191505090505090565b60405180604001604052806002905b611e54611e1b565b815260200190600190039081611e4c5790505090565b6000604051905090565b600080fd5b600080fd5b6000819050919050565b611e9181611e7e565b8114611e9c57600080fd5b50565b600081359050611eae81611e88565b92915050565b600060208284031215611eca57611ec9611e74565b5b6000611ed884828501611e9f565b91505092915050565b600081519050919050565b600082825260208201905092915050565b60005b83811015611f1b578082015181840152602081019050611f00565b60008484015250505050565b6000601f19601f8301169050919050565b6000611f4382611ee1565b611f4d8185611eec565b9350611f5d818560208601611efd565b611f6681611f27565b840191505092915050565b60006020820190508181036000830152611f8b8184611f38565b905092915050565b611f9c81611e7e565b82525050565b6000602082019050611fb76000830184611f93565b92915050565b600080fd5b600080fd5b7f4e487b7100000000000000000000000000000000000000000000000000000000600052604160045260246000fd5b611fff82611f27565b810181811067ffffffffffffffff8211171561201e5761201d611fc7565b5b80604052505050565b6000612031611e6a565b905061203d8282611ff6565b919050565b600067ffffffffffffffff82111561205d5761205c611fc7565b5b61206682611f27565b9050602081019050919050565b82818337600083830152505050565b600061209561209084612042565b612027565b9050828152602081018484840111156120b1576120b0611fc2565b5b6120bc848285612073565b509392505050565b600082601f8301126120d9576120d8611fbd565b5b81356120e9848260208601612082565b91505092915050565b60006020828403121561210857612107611e74565b5b600082013567ffffffffffffffff81111561212657612125611e79565b5b612132848285016120c4565b91505092915050565b600073ffffffffffffffffffffffffffffffffffffffff82169050919050565b6000819050919050565b600061218061217b6121768461213b565b61215b565b61213b565b9050919050565b600061219282612165565b9050919050565b60006121a482612187565b9050919050565b6121b481612199565b82525050565b60006020820190506121cf60008301846121ab565b92915050565b600081519050919050565b600082825260208201905092915050565b6000819050602082019050919050565b600082825260208201905092915050565b600061221d82611ee1565b6122278185612201565b9350612237818560208601611efd565b61224081611f27565b840191505092915050565b60006122578383612212565b905092915050565b6000602082019050919050565b6000612277826121d5565b61228181856121e0565b935083602082028501612293856121f1565b8060005b858110156122cf57848403895281516122b0858261224b565b94506122bb8361225f565b925060208a01995050600181019050612297565b50829750879550505050505092915050565b600060208201905081810360008301526122fb818461226c565b905092915050565b600061230e8261213b565b9050919050565b61231e81612303565b811461232957600080fd5b50565b60008135905061233b81612315565b92915050565b600067ffffffffffffffff82111561235c5761235b611fc7565b5b602082029050602081019050919050565b600080fd5b600061238561238084612341565b612027565b905080838252602082019050602084028301858111156123a8576123a761236d565b5b835b818110156123d157806123bd8882611e9f565b8452602084019350506020810190506123aa565b5050509392505050565b600082601f8301126123f0576123ef611fbd565b5b8135612400848260208601612372565b91505092915050565b600080600080600060a0868803121561242557612424611e74565b5b60006124338882890161232c565b955050602086013567ffffffffffffffff81111561245457612453611e79565b5b612460888289016123db565b945050604086013567ffffffffffffffff81111561248157612480611e79565b5b61248d888289016120c4565b935050606086013567ffffffffffffffff8111156124ae576124ad611e79565b5b6124ba888289016120c4565b925050608086013567ffffffffffffffff8111156124db576124da611e79565b5b6124e7888289016120c4565b9150509295509295909350565b60008115159050919050565b612509816124f4565b82525050565b60006020820190506125246000830184612500565b92915050565b61253381612303565b82525050565b600060208201905061254e600083018461252a565b92915050565b7f4e487b7100000000000000000000000000000000000000000000000000000000600052602260045260246000fd5b6000600282049050600182168061259b57607f821691505b6020821081036125ae576125ad612554565b5b50919050565b7f4e487b7100000000000000000000000000000000000000000000000000000000600052601160045260246000fd5b60006125ee82611e7e565b91506125f983611e7e565b9250828203905081811115612611576126106125b4565b5b92915050565b600081905092915050565b600061262d82611ee1565b6126378185612617565b9350612647818560208601611efd565b80840191505092915050565b600061265f8284612622565b915081905092915050565b7f546865206e6f746520686173206265656e20616c7265616479207370656e7400600082015250565b60006126a0601f83611eec565b91506126ab8261266a565b602082019050919050565b600060208201905081810360008301526126cf81612693565b9050919050565b60006040820190506126eb600083018561252a565b6126f8602083018461252a565b9392505050565b60008151905061270e81611e88565b92915050565b60006020828403121561272a57612729611e74565b5b6000612738848285016126ff565b91505092915050565b600061274c82611e7e565b915061275783611e7e565b925082820190508082111561276f5761276e6125b4565b5b92915050565b600061278082611e7e565b91507fffffffffffffffffffffffffffffffffffffffffffffffffffffffffffffffff82036127b2576127b16125b4565b5b600182019050919050565b60008190508160005260206000209050919050565b60006020601f8301049050919050565b600082821b905092915050565b60006008830261281f7fffffffffffffffffffffffffffffffffffffffffffffffffffffffffffffffff826127e2565b61282986836127e2565b95508019841693508086168417925050509392505050565b600061285c61285761285284611e7e565b61215b565b611e7e565b9050919050565b6000819050919050565b61287683612841565b61288a61288282612863565b8484546127ef565b825550505050565b600090565b61289f612892565b6128aa81848461286d565b505050565b5b818110156128ce576128c3600082612897565b6001810190506128b0565b5050565b601f821115612913576128e4816127bd565b6128ed846127d2565b810160208510156128fc578190505b612910612908856127d2565b8301826128af565b50505b505050565b600082821c905092915050565b600061293660001984600802612918565b1980831691505092915050565b600061294f8383612925565b9150826002028217905092915050565b61296882611ee1565b67ffffffffffffffff81111561298157612980611fc7565b5b61298b8254612583565b6129968282856128d2565b600060209050601f8311600181146129c957600084156129b7578287015190505b6129c18582612943565b865550612a29565b601f1984166129d7866127bd565b60005b828110156129ff578489015182556001820191506020850194506020810190506129da565b86831015612a1c5784890151612a18601f891682612925565b8355505b6001600288020188555050505b505050505050565b6000604082019050612a46600083018561252a565b612a536020830184611f93565b9392505050565b612a63816124f4565b8114612a6e57600080fd5b50565b600081519050612a8081612a5a565b92915050565b600060208284031215612a9c57612a9b611e74565b5b6000612aaa84828501612a71565b91505092915050565b7f4661696c2073776170546f6b656e73466f724554480000000000000000000000600082015250565b6000612ae9601583611eec565b9150612af482612ab3565b602082019050919050565b60006020820190508181036000830152612b1881612adc565b9050919050565b7f4661696c2073776170455448466f72546f6b656e730000000000000000000000600082015250565b6000612b55601583611eec565b9150612b6082612b1f565b602082019050919050565b60006020820190508181036000830152612b8481612b48565b9050919050565b7f57726f6e6720636f646500000000000000000000000000000000000000000000600082015250565b6000612bc1600a83611eec565b9150612bcc82612b8b565b602082019050919050565b60006020820190508181036000830152612bf081612bb4565b9050919050565b7f4572726f72204164644c69717569646974792031000000000000000000000000600082015250565b6000612c2d601483611eec565b9150612c3882612bf7565b602082019050919050565b60006020820190508181036000830152612c5c81612c20565b9050919050565b7f4572726f72204164644c69717569646974792032000000000000000000000000600082015250565b6000612c99601483611eec565b9150612ca482612c63565b602082019050919050565b60006020820190508181036000830152612cc881612c8c565b9050919050565b6000606082019050612ce4600083018661252a565b612cf16020830185611f93565b612cfe6040830184611f93565b949350505050565b7f4f776e61626c653a2063616c6c6572206973206e6f7420746865206f776e6572600082015250565b6000612d3c602083611eec565b9150612d4782612d06565b602082019050919050565b60006020820190508181036000830152612d6b81612d2f565b9050919050565b7f546f6b656e20726573657276657320776173206e6f7420300000000000000000600082015250565b6000612da8601883611eec565b9150612db382612d72565b602082019050919050565b60006020820190508181036000830152612dd781612d9b565b9050919050565b7f45544820726573657276657320776173206e6f7420302e000000000000000000600082015250565b6000612e14601783611eec565b9150612e1f82612dde565b602082019050919050565b60006020820190508181036000830152612e4381612e07565b9050919050565b7f4e6565642045544820746f2063726561746520706f6f6c2e0000000000000000600082015250565b6000612e80601883611eec565b9150612e8b82612e4a565b602082019050919050565b60006020820190508181036000830152612eaf81612e73565b9050919050565b7f4e65656420746f6b656e7320746f2063726561746520706f6f6c2e0000000000600082015250565b6000612eec601b83611eec565b9150612ef782612eb6565b602082019050919050565b60006020820190508181036000830152612f1b81612edf565b9050919050565b6000606082019050612f37600083018661252a565b612f44602083018561252a565b612f516040830184611f93565b949350505050565b7f4e487b7100000000000000000000000000000000000000000000000000000000600052603260045260246000fd5b600060029050919050565b600081905092915050565b6000819050919050565b612fb181611e7e565b82525050565b6000612fc38383612fa8565b60208301905092915050565b6000602082019050919050565b612fe581612f88565b612fef8184612f93565b9250612ffa82612f9e565b8060005b8381101561302b5781516130128782612fb7565b965061301d83612fcf565b925050600181019050612ffe565b505050505050565b600060029050919050565b600081905092915050565b6000819050919050565b600081905092915050565b61306781612f88565b6130718184613053565b925061307c82612f9e565b8060005b838110156130ad5781516130948782612fb7565b965061309f83612fcf565b925050600181019050613080565b505050505050565b60006130c1838361305e565b60408301905092915050565b6000602082019050919050565b6130e381613033565b6130ed818461303e565b92506130f882613049565b8060005b8381101561312957815161311087826130b5565b965061311b836130cd565b9250506001810190506130fc565b505050505050565b6000610140820190506131476000830187612fdc565b61315460408301866130da565b61316160c0830185612fdc565b61316f610100830184612fdc565b95945050505050565b7f496e76616c69642077697468647261772070726f6f6600000000000000000000600082015250565b60006131ae601683611eec565b91506131b982613178565b602082019050919050565b600060208201905081810360008301526131dd816131a1565b9050919050565b60006131ef82611e7e565b91506131fa83611e7e565b925082820261320881611e7e565b9150828204841483151761321f5761321e6125b4565b5b5092915050565b7f4e487b7100000000000000000000000000000000000000000000000000000000600052601260045260246000fd5b600061326082611e7e565b915061326b83611e7e565b92508261327b5761327a613226565b5b82820490509291505056fea26469706673582212206f6ca17d8649e574011e4b0885a82892c9602f7a04a5e6b6748b4a5d31ec838b64736f6c63430008110033",
  "linkReferences": {},
  "deployedLinkReferences": {}
}