{
  "_format": "hh-sol-artifact-1",
  "contractName": "TokenExchange",
  "sourceName": "contracts/exchange.sol",
  "abi": [
    {
      "inputs": [],
      "stateMutability": "nonpayable",
      "type": "constructor"
    },
    {
      "anonymous": false,
      "inputs": [
        {
          "indexed": false,
          "internalType": "address",
          "name": "from",
          "type": "address"
        },
        {
          "indexed": false,
          "internalType": "uint256",
          "name": "amount",
          "type": "uint256"
        }
      ],
      "name": "AddLiquidity",
      "type": "event"
    },
    {
      "anonymous": false,
      "inputs": [
        {
          "indexed": false,
          "internalType": "address",
          "name": "to",
          "type": "address"
        },
        {
          "indexed": false,
          "internalType": "uint256",
          "name": "amount",
          "type": "uint256"
        }
      ],
      "name": "RemoveLiquidity",
      "type": "event"
    },
    {
      "inputs": [
        {
          "internalType": "uint256",
          "name": "max_exchange_rate",
          "type": "uint256"
        },
        {
          "internalType": "uint256",
          "name": "min_exchange_rate",
          "type": "uint256"
        }
      ],
      "name": "addLiquidity",
      "outputs": [
        {
          "internalType": "uint256",
          "name": "",
          "type": "uint256"
        }
      ],
      "stateMutability": "payable",
      "type": "function"
    },
    {
      "inputs": [],
      "name": "admin",
      "outputs": [
        {
          "internalType": "address",
          "name": "",
          "type": "address"
        }
      ],
      "stateMutability": "view",
      "type": "function"
    },
    {
      "inputs": [
        {
          "internalType": "uint256",
          "name": "amountETH",
          "type": "uint256"
        }
      ],
      "name": "amountETHGivenToken",
      "outputs": [
        {
          "internalType": "uint256",
          "name": "",
          "type": "uint256"
        }
      ],
      "stateMutability": "view",
      "type": "function"
    },
    {
      "inputs": [
        {
          "internalType": "uint256",
          "name": "amountToken",
          "type": "uint256"
        }
      ],
      "name": "amountTokenGivenETH",
      "outputs": [
        {
          "internalType": "uint256",
          "name": "",
          "type": "uint256"
        }
      ],
      "stateMutability": "view",
      "type": "function"
    },
    {
      "inputs": [
        {
          "internalType": "uint256",
          "name": "amountTokens",
          "type": "uint256"
        }
      ],
      "name": "createPool",
      "outputs": [],
      "stateMutability": "payable",
      "type": "function"
    },
    {
      "inputs": [],
      "name": "eth_reserves",
      "outputs": [
        {
          "internalType": "uint256",
          "name": "",
          "type": "uint256"
        }
      ],
      "stateMutability": "view",
      "type": "function"
    },
    {
      "inputs": [],
      "name": "k",
      "outputs": [
        {
          "internalType": "uint256",
          "name": "",
          "type": "uint256"
        }
      ],
      "stateMutability": "view",
      "type": "function"
    },
    {
      "inputs": [],
      "name": "priceETH",
      "outputs": [
        {
          "internalType": "uint256",
          "name": "",
          "type": "uint256"
        }
      ],
      "stateMutability": "view",
      "type": "function"
    },
    {
      "inputs": [],
      "name": "priceToken",
      "outputs": [
        {
          "internalType": "uint256",
          "name": "",
          "type": "uint256"
        }
      ],
      "stateMutability": "view",
      "type": "function"
    },
    {
      "inputs": [
        {
          "internalType": "uint256",
          "name": "max_exchange_rate",
          "type": "uint256"
        },
        {
          "internalType": "uint256",
          "name": "min_exchange_rate",
          "type": "uint256"
        }
      ],
      "name": "removeAllLiquidity",
      "outputs": [],
      "stateMutability": "payable",
      "type": "function"
    },
    {
      "inputs": [
        {
          "internalType": "uint256",
          "name": "percent",
          "type": "uint256"
        },
        {
          "internalType": "uint256",
          "name": "max_exchange_rate",
          "type": "uint256"
        },
        {
          "internalType": "uint256",
          "name": "min_exchange_rate",
          "type": "uint256"
        }
      ],
      "name": "removeLiquidity",
      "outputs": [],
      "stateMutability": "payable",
      "type": "function"
    },
    {
      "inputs": [
        {
          "internalType": "uint256",
          "name": "max_exchange_rate",
          "type": "uint256"
        },
        {
          "internalType": "uint256",
          "name": "min_exchange_rate",
          "type": "uint256"
        }
      ],
      "name": "swapETHForTokens",
      "outputs": [],
      "stateMutability": "payable",
      "type": "function"
    },
    {
      "inputs": [
        {
          "internalType": "uint256",
          "name": "amountTokens",
          "type": "uint256"
        },
        {
          "internalType": "uint256",
          "name": "max_exchange_rate",
          "type": "uint256"
        },
        {
          "internalType": "uint256",
          "name": "min_exchange_rate",
          "type": "uint256"
        }
      ],
      "name": "swapTokensForETH",
      "outputs": [],
      "stateMutability": "payable",
      "type": "function"
    },
    {
      "inputs": [],
      "name": "swap_fee_denominator",
      "outputs": [
        {
          "internalType": "uint256",
          "name": "",
          "type": "uint256"
        }
      ],
      "stateMutability": "view",
      "type": "function"
    },
    {
      "inputs": [],
      "name": "swap_fee_numerator",
      "outputs": [
        {
          "internalType": "uint256",
          "name": "",
          "type": "uint256"
        }
      ],
      "stateMutability": "view",
      "type": "function"
    },
    {
      "inputs": [],
      "name": "token_reserves",
      "outputs": [
        {
          "internalType": "uint256",
          "name": "",
          "type": "uint256"
        }
      ],
      "stateMutability": "view",
      "type": "function"
    }
  ],
  "bytecode": "0x608060405273d7bbe7a7ad3dbc4022fad12165ab47805bf9cf66600260006101000a81548173ffffffffffffffffffffffffffffffffffffffff021916908373ffffffffffffffffffffffffffffffffffffffff160217905550600260009054906101000a900473ffffffffffffffffffffffffffffffffffffffff16600360006101000a81548173ffffffffffffffffffffffffffffffffffffffff021916908373ffffffffffffffffffffffffffffffffffffffff1602179055506000600655600060075560056009556064600a553480156100dc57600080fd5b50336000806101000a81548173ffffffffffffffffffffffffffffffffffffffff021916908373ffffffffffffffffffffffffffffffffffffffff16021790555033600160006101000a81548173ffffffffffffffffffffffffffffffffffffffff021916908373ffffffffffffffffffffffffffffffffffffffff1602179055506121248061016d6000396000f3fe6080604052600436106100f35760003560e01c806397ba499f1161008a578063b4f40c6111610059578063b4f40c61146102c8578063c38ad273146102f3578063eeddd4f61461031e578063f851a4401461035b576100f3565b806397ba499f146102265780639adb3b97146102515780639cd441da1461027c578063abc81227146102ac576100f3565b806358ad6de4116100c657806358ad6de4146101a75780638259e6a0146101c3578063857620e1146101df57806385a81c84146101fb576100f3565b8063078964a7146100f8578063156ac5ca146101145780632098629a146101515780632ff6fe761461017c575b600080fd5b610112600480360381019061010d9190611847565b610386565b005b34801561012057600080fd5b5061013b6004803603810190610136919061189a565b61065d565b60405161014891906118d6565b60405180910390f35b34801561015d57600080fd5b50610166610693565b60405161017391906118d6565b60405180910390f35b34801561018857600080fd5b50610191610699565b60405161019e91906118d6565b60405180910390f35b6101c160048036038101906101bc91906118f1565b6106cf565b005b6101dd60048036038101906101d8919061189a565b610a56565b005b6101f960048036038101906101f49190611847565b610d4d565b005b34801561020757600080fd5b50610210611158565b60405161021d91906118d6565b60405180910390f35b34801561023257600080fd5b5061023b61115e565b60405161024891906118d6565b60405180910390f35b34801561025d57600080fd5b50610266611164565b60405161027391906118d6565b60405180910390f35b610296600480360381019061029191906118f1565b61116a565b6040516102a391906118d6565b60405180910390f35b6102c660048036038101906102c191906118f1565b6114ca565b005b3480156102d457600080fd5b506102dd61171c565b6040516102ea91906118d6565b60405180910390f35b3480156102ff57600080fd5b50610308611722565b60405161031591906118d6565b60405180910390f35b34801561032a57600080fd5b506103456004803603810190610340919061189a565b611758565b60405161035291906118d6565b60405180910390f35b34801561036757600080fd5b5061037061178e565b60405161037d9190611972565b60405180910390f35b82600360009054906101000a900473ffffffffffffffffffffffffffffffffffffffff1673ffffffffffffffffffffffffffffffffffffffff166370a08231336040518263ffffffff1660e01b81526004016103e29190611972565b602060405180830381865afa1580156103ff573d6000803e3d6000fd5b505050506040513d601f19601f8201168201806040525081019061042391906119a2565b1015610464576040517f08c379a000000000000000000000000000000000000000000000000000000000815260040161045b90611a2c565b60405180910390fd5b60006104a1610492600a54610484600954886117b490919063ffffffff16565b6117ca90919063ffffffff16565b856117e090919063ffffffff16565b905060006104e26104d16104c0846006546117f690919063ffffffff16565b6008546117ca90919063ffffffff16565b6007546117e090919063ffffffff16565b9050836104ed610699565b111561052e576040517f08c379a000000000000000000000000000000000000000000000000000000000815260040161052590611a98565b60405180910390fd5b82610537610699565b1015610578576040517f08c379a000000000000000000000000000000000000000000000000000000000815260040161056f90611a98565b60405180910390fd5b60075481106105bc576040517f08c379a00000000000000000000000000000000000000000000000000000000081526004016105b390611b04565b60405180910390fd5b3373ffffffffffffffffffffffffffffffffffffffff166108fc829081150290604051600060405180830381858888f19350505050158015610602573d6000803e3d6000fd5b50610618816007546117e090919063ffffffff16565b600781905550610633856006546117f690919063ffffffff16565b6006819055506106506007546006546117b490919063ffffffff16565b6008819055505050505050565b600061068c606461067e61066f611722565b856117b490919063ffffffff16565b6117ca90919063ffffffff16565b9050919050565b600a5481565b600080606490506106c96007546106bb600654846117b490919063ffffffff16565b6117ca90919063ffffffff16565b91505090565b816106d8610699565b1115610719576040517f08c379a000000000000000000000000000000000000000000000000000000000815260040161071090611b70565b60405180910390fd5b80610722610699565b1015610763576040517f08c379a000000000000000000000000000000000000000000000000000000000815260040161075a90611b70565b60405180910390fd5b6000600460003373ffffffffffffffffffffffffffffffffffffffff1673ffffffffffffffffffffffffffffffffffffffff1681526020019081526020016000205490506000600560003373ffffffffffffffffffffffffffffffffffffffff1673ffffffffffffffffffffffffffffffffffffffff1681526020019081526020016000205490503373ffffffffffffffffffffffffffffffffffffffff166108fc839081150290604051600060405180830381858888f19350505050158015610831573d6000803e3d6000fd5b50600360009054906101000a900473ffffffffffffffffffffffffffffffffffffffff1673ffffffffffffffffffffffffffffffffffffffff1663a9059cbb33836040518363ffffffff1660e01b815260040161088f929190611b90565b6020604051808303816000875af11580156108ae573d6000803e3d6000fd5b505050506040513d601f19601f820116820180604052508101906108d29190611bf1565b5061092582600460003373ffffffffffffffffffffffffffffffffffffffff1673ffffffffffffffffffffffffffffffffffffffff168152602001908152602001600020546117e090919063ffffffff16565b600460003373ffffffffffffffffffffffffffffffffffffffff1673ffffffffffffffffffffffffffffffffffffffff168152602001908152602001600020819055506109ba81600560003373ffffffffffffffffffffffffffffffffffffffff1673ffffffffffffffffffffffffffffffffffffffff168152602001908152602001600020546117e090919063ffffffff16565b600560003373ffffffffffffffffffffffffffffffffffffffff1673ffffffffffffffffffffffffffffffffffffffff16815260200190815260200160002081905550610a12816006546117e090919063ffffffff16565b600681905550610a2d826007546117e090919063ffffffff16565b600781905550610a4a6007546006546117b490919063ffffffff16565b60088190555050505050565b3373ffffffffffffffffffffffffffffffffffffffff1660008054906101000a900473ffffffffffffffffffffffffffffffffffffffff1673ffffffffffffffffffffffffffffffffffffffff1614610ae4576040517f08c379a0000000000000000000000000000000000000000000000000000000008152600401610adb90611c6a565b60405180910390fd5b600060065414610b29576040517f08c379a0000000000000000000000000000000000000000000000000000000008152600401610b2090611cd6565b60405180910390fd5b600060075414610b6e576040517f08c379a0000000000000000000000000000000000000000000000000000000008152600401610b6590611d42565b60405180910390fd5b60003411610bb1576040517f08c379a0000000000000000000000000000000000000000000000000000000008152600401610ba890611dae565b60405180910390fd5b60008111610bf4576040517f08c379a0000000000000000000000000000000000000000000000000000000008152600401610beb90611e1a565b60405180910390fd5b600360009054906101000a900473ffffffffffffffffffffffffffffffffffffffff1673ffffffffffffffffffffffffffffffffffffffff166323b872dd3330846040518463ffffffff1660e01b8152600401610c5393929190611e3a565b6020604051808303816000875af1158015610c72573d6000803e3d6000fd5b505050506040513d601f19601f82011682018060405250810190610c969190611bf1565b50346007819055508060068190555034600460003373ffffffffffffffffffffffffffffffffffffffff1673ffffffffffffffffffffffffffffffffffffffff1681526020019081526020016000208190555080600560003373ffffffffffffffffffffffffffffffffffffffff1673ffffffffffffffffffffffffffffffffffffffff16815260200190815260200160002081905550610d446006546007546117b490919063ffffffff16565b60088190555050565b81610d56610699565b1115610d97576040517f08c379a0000000000000000000000000000000000000000000000000000000008152600401610d8e90611ebd565b60405180910390fd5b80610da0610699565b1015610de1576040517f08c379a0000000000000000000000000000000000000000000000000000000008152600401610dd890611ebd565b60405180910390fd5b6000610e486064610e3a86600460003373ffffffffffffffffffffffffffffffffffffffff1673ffffffffffffffffffffffffffffffffffffffff168152602001908152602001600020546117b490919063ffffffff16565b6117ca90919063ffffffff16565b90506000610eb16064610ea387600560003373ffffffffffffffffffffffffffffffffffffffff1673ffffffffffffffffffffffffffffffffffffffff168152602001908152602001600020546117b490919063ffffffff16565b6117ca90919063ffffffff16565b90503373ffffffffffffffffffffffffffffffffffffffff166108fc839081150290604051600060405180830381858888f19350505050158015610ef9573d6000803e3d6000fd5b50610f4c82600460003373ffffffffffffffffffffffffffffffffffffffff1673ffffffffffffffffffffffffffffffffffffffff168152602001908152602001600020546117e090919063ffffffff16565b600460003373ffffffffffffffffffffffffffffffffffffffff1673ffffffffffffffffffffffffffffffffffffffff16815260200190815260200160002081905550610fe181600560003373ffffffffffffffffffffffffffffffffffffffff1673ffffffffffffffffffffffffffffffffffffffff168152602001908152602001600020546117e090919063ffffffff16565b600560003373ffffffffffffffffffffffffffffffffffffffff1673ffffffffffffffffffffffffffffffffffffffff16815260200190815260200160002081905550611039816006546117e090919063ffffffff16565b600681905550611054826007546117e090919063ffffffff16565b6007819055506110716007546006546117b490919063ffffffff16565b600881905550600360009054906101000a900473ffffffffffffffffffffffffffffffffffffffff1673ffffffffffffffffffffffffffffffffffffffff1663a9059cbb33836040518363ffffffff1660e01b81526004016110d4929190611b90565b6020604051808303816000875af11580156110f3573d6000803e3d6000fd5b505050506040513d601f19601f820116820180604052508101906111179190611bf1565b507fdfdd120ded9b7afc0c23dd5310e93aaa3e1c3b9f75af9b805fab3030842439f23386604051611149929190611b90565b60405180910390a15050505050565b60095481565b60075481565b60065481565b600080611196600654611188600754346117b490919063ffffffff16565b6117ca90919063ffffffff16565b905080600360009054906101000a900473ffffffffffffffffffffffffffffffffffffffff1673ffffffffffffffffffffffffffffffffffffffff166370a08231336040518263ffffffff1660e01b81526004016111f49190611972565b602060405180830381865afa158015611211573d6000803e3d6000fd5b505050506040513d601f19601f8201168201806040525081019061123591906119a2565b1015611276576040517f08c379a000000000000000000000000000000000000000000000000000000000815260040161126d90611f29565b60405180910390fd5b8361127f611722565b11156112c0576040517f08c379a00000000000000000000000000000000000000000000000000000000081526004016112b790611ebd565b60405180910390fd5b826112c9611722565b101561130a576040517f08c379a000000000000000000000000000000000000000000000000000000000815260040161130190611ebd565b60405180910390fd5b61131f346007546117f690919063ffffffff16565b60078190555061133a816006546117f690919063ffffffff16565b6006819055506113576006546007546117b490919063ffffffff16565b6008819055506113af34600460003373ffffffffffffffffffffffffffffffffffffffff1673ffffffffffffffffffffffffffffffffffffffff168152602001908152602001600020546117f690919063ffffffff16565b600460003373ffffffffffffffffffffffffffffffffffffffff1673ffffffffffffffffffffffffffffffffffffffff1681526020019081526020016000208190555061144481600560003373ffffffffffffffffffffffffffffffffffffffff1673ffffffffffffffffffffffffffffffffffffffff168152602001908152602001600020546117f690919063ffffffff16565b600560003373ffffffffffffffffffffffffffffffffffffffff1673ffffffffffffffffffffffffffffffffffffffff168152602001908152602001600020819055507fbb37879e252460856212dc4e8c6edf174e473df9423e3a7feccd21f8c28d587a33346040516114b8929190611b90565b60405180910390a18091505092915050565b60006115076114f8600a546114ea600954346117b490919063ffffffff16565b6117ca90919063ffffffff16565b346117e090919063ffffffff16565b90506000611548611537611526846007546117f690919063ffffffff16565b6008546117ca90919063ffffffff16565b6006546117e090919063ffffffff16565b905083611553610699565b1115611594576040517f08c379a000000000000000000000000000000000000000000000000000000000815260040161158b90611a98565b60405180910390fd5b8261159d610699565b10156115de576040517f08c379a00000000000000000000000000000000000000000000000000000000081526004016115d590611a98565b60405180910390fd5b8060065411611622576040517f08c379a000000000000000000000000000000000000000000000000000000000815260040161161990611f95565b60405180910390fd5b600360009054906101000a900473ffffffffffffffffffffffffffffffffffffffff1673ffffffffffffffffffffffffffffffffffffffff1663a9059cbb33836040518363ffffffff1660e01b815260040161167f929190611b90565b6020604051808303816000875af115801561169e573d6000803e3d6000fd5b505050506040513d601f19601f820116820180604052508101906116c29190611bf1565b506116d8346007546117f690919063ffffffff16565b6007819055506116f3816006546117e090919063ffffffff16565b6006819055506117106007546006546117b490919063ffffffff16565b60088190555050505050565b60085481565b60008060649050611752600654611744600754846117b490919063ffffffff16565b6117ca90919063ffffffff16565b91505090565b6000611787606461177961176a610699565b856117b490919063ffffffff16565b6117ca90919063ffffffff16565b9050919050565b600160009054906101000a900473ffffffffffffffffffffffffffffffffffffffff1681565b600081836117c29190611fe4565b905092915050565b600081836117d89190612055565b905092915050565b600081836117ee9190612086565b905092915050565b6000818361180491906120ba565b905092915050565b600080fd5b6000819050919050565b61182481611811565b811461182f57600080fd5b50565b6000813590506118418161181b565b92915050565b6000806000606084860312156118605761185f61180c565b5b600061186e86828701611832565b935050602061187f86828701611832565b925050604061189086828701611832565b9150509250925092565b6000602082840312156118b0576118af61180c565b5b60006118be84828501611832565b91505092915050565b6118d081611811565b82525050565b60006020820190506118eb60008301846118c7565b92915050565b600080604083850312156119085761190761180c565b5b600061191685828601611832565b925050602061192785828601611832565b9150509250929050565b600073ffffffffffffffffffffffffffffffffffffffff82169050919050565b600061195c82611931565b9050919050565b61196c81611951565b82525050565b60006020820190506119876000830184611963565b92915050565b60008151905061199c8161181b565b92915050565b6000602082840312156119b8576119b761180c565b5b60006119c68482850161198d565b91505092915050565b600082825260208201905092915050565b7f55736572206e6f7420656e6f75676820746f6b656e0000000000000000000000600082015250565b6000611a166015836119cf565b9150611a21826119e0565b602082019050919050565b60006020820190508181036000830152611a4581611a09565b9050919050565b7f73776170455448466f72546f6b656e733a204661696c00000000000000000000600082015250565b6000611a826016836119cf565b9150611a8d82611a4c565b602082019050919050565b60006020820190508181036000830152611ab181611a75565b9050919050565b7f4c6971756964697479206e6f7420656e6f756768204554480000000000000000600082015250565b6000611aee6018836119cf565b9150611af982611ab8565b602082019050919050565b60006020820190508181036000830152611b1d81611ae1565b9050919050565b7f72656d6f7665416c6c4c69717569646974793a204661696c0000000000000000600082015250565b6000611b5a6018836119cf565b9150611b6582611b24565b602082019050919050565b60006020820190508181036000830152611b8981611b4d565b9050919050565b6000604082019050611ba56000830185611963565b611bb260208301846118c7565b9392505050565b60008115159050919050565b611bce81611bb9565b8114611bd957600080fd5b50565b600081519050611beb81611bc5565b92915050565b600060208284031215611c0757611c0661180c565b5b6000611c1584828501611bdc565b91505092915050565b7f4f776e61626c653a2063616c6c6572206973206e6f7420746865206f776e6572600082015250565b6000611c546020836119cf565b9150611c5f82611c1e565b602082019050919050565b60006020820190508181036000830152611c8381611c47565b9050919050565b7f546f6b656e20726573657276657320776173206e6f7420300000000000000000600082015250565b6000611cc06018836119cf565b9150611ccb82611c8a565b602082019050919050565b60006020820190508181036000830152611cef81611cb3565b9050919050565b7f45544820726573657276657320776173206e6f7420302e000000000000000000600082015250565b6000611d2c6017836119cf565b9150611d3782611cf6565b602082019050919050565b60006020820190508181036000830152611d5b81611d1f565b9050919050565b7f4e6565642045544820746f2063726561746520706f6f6c2e0000000000000000600082015250565b6000611d986018836119cf565b9150611da382611d62565b602082019050919050565b60006020820190508181036000830152611dc781611d8b565b9050919050565b7f4e65656420746f6b656e7320746f2063726561746520706f6f6c2e0000000000600082015250565b6000611e04601b836119cf565b9150611e0f82611dce565b602082019050919050565b60006020820190508181036000830152611e3381611df7565b9050919050565b6000606082019050611e4f6000830186611963565b611e5c6020830185611963565b611e6960408301846118c7565b949350505050565b7f6164644c69717569646974793a204661696c0000000000000000000000000000600082015250565b6000611ea76012836119cf565b9150611eb282611e71565b602082019050919050565b60006020820190508181036000830152611ed681611e9a565b9050919050565b7f4e6f7420656e6f75676820746f6b656e00000000000000000000000000000000600082015250565b6000611f136010836119cf565b9150611f1e82611edd565b602082019050919050565b60006020820190508181036000830152611f4281611f06565b9050919050565b7f4c6971756964697479206e6f7420656e6f75676820746f6b656e000000000000600082015250565b6000611f7f601a836119cf565b9150611f8a82611f49565b602082019050919050565b60006020820190508181036000830152611fae81611f72565b9050919050565b7f4e487b7100000000000000000000000000000000000000000000000000000000600052601160045260246000fd5b6000611fef82611811565b9150611ffa83611811565b925082820261200881611811565b9150828204841483151761201f5761201e611fb5565b5b5092915050565b7f4e487b7100000000000000000000000000000000000000000000000000000000600052601260045260246000fd5b600061206082611811565b915061206b83611811565b92508261207b5761207a612026565b5b828204905092915050565b600061209182611811565b915061209c83611811565b92508282039050818111156120b4576120b3611fb5565b5b92915050565b60006120c582611811565b91506120d083611811565b92508282019050808211156120e8576120e7611fb5565b5b9291505056fea26469706673582212209a313821bf4cc2aac40e92e7f37d41e2deef2a662ff40af58bccb17ecb29f09864736f6c63430008110033",
  "linkReferences": {},
  "deployedLinkReferences": {}
}